:020000040800F2
:100000000000022005300008892300089123000821
:1000100099230008A1230008A9230008000000007C
:1000200000000000000000000000000001A4000823
:10003000B12300080000000051A60008897F0008D5
:10004000553000085530000855300008553000087C
:10005000553000085530000855300008553000086C
:10006000553000085530000855300008553000085C
:10007000553000085530000855300008553000084C
:10008000C1230008D523000855300008553000086A
:10009000553000085530000855300008553000082C
:1000A000553000085530000855300008553000081C
:1000B000553000085530000855300008553000080C
:1000C00055300008553000085530000855300008FC
:1000D00055300008E9230008FD23000855300008CA
:1000E00055300008553000085530000855300008DC
:1000F00055300008553000085530000855300008CC
:1001000055300008553000085530000855300008BB
:1001100055300008553000081124000855300008FB
:1001200055300008553000082524000855300008D7
:10013000553000085530000855300008553000088B
:10014000553000085530000855300008553000087B
:100150005530000855300008392400085530000893
:10016000553000085530000855300008553000085B
:1001700055300008553000085530000800000000D8
:0801800055300008553000085D
:1001900010B5054C237833B9044B13B10448AFF3C1
:1001A00000800123237010BD781C00200000000097
:1001B000F8A7010808B5034B1BB103490348AFF387
:1001C000008008BD000000007C1C0020F8A701088A
:1001D00010F8012B11F8013B012A28BF9A42F7D0F1
:1001E000D01A70470000000000000000000000006E
:1001F00001F0FF01102A2BDB10F0070F08D010F8D8
:10020000013B013A8B422DD010F0070F42B3F6D1DB
:10021000F0B441EA012141EA014122F007047FF0F4
:1002200000070023F0E80256083C85EA010586EA4B
:10023000010685FA47F5A3FA87F586FA47F6A5FA87
:1002400087F68EB9EED1F0BC01F0FF0102F0070293
:1002500032B110F8013B013A83EA010313B1F8D13E
:100260000020704701387047002D06BF354603381F
:10027000073815F0010F07D1013015F4807F02BF58
:10028000013015F4C03F0130F0BC0138704700BFA9
:10029000034613F8012B002AFBD1181A01387047C6
:1002A00070B54FF0FF0C4CF4E06C1CEA11541DBF0C
:1002B0001CEA135594EA0C0F95EA0C0F00F0DEF8D7
:1002C0002C4481EA030621EA4C5123EA4C5350EABC
:1002D000013518BF52EA033541F4801143F480130D
:1002E00038D0A0FB02CE4FF00005E1FB02E506F09E
:1002F0000042E0FB03E54FF00006E1FB03569CF0F3
:10030000000F18BF4EF0010EA4F1FF04B6F5007FF8
:1003100064F5407404D25FEA4E0E6D4146EB06066A
:1003200042EAC62141EA55514FEAC52040EA5E50F3
:100330004FEACE2EB4F1FD0C88BFBCF5E06F1ED89D
:10034000BEF1004F08BF5FEA500E50F1000041EBD4
:10035000045170BD06F0004646EA010140EA020081
:1003600081EA0301B4EB5C04C2BFD4EB0C0541EAA3
:10037000045170BD41F480114FF0000E013C00F3B8
:10038000AB8014F1360FDEBF002001F0004170BDDC
:10039000C4F10004203C35DA0C341BDC04F11404F5
:1003A000C4F1200500FA05F320FA04F001FA05F281
:1003B00040EA020001F0004221F0004110EBD3704E
:1003C00021FA04F642EB06015EEA430E08BF20EA7A
:1003D000D37070BDC4F10C04C4F1200500FA04F31D
:1003E00020FA05F001FA04F240EA020001F00041AF
:1003F00010EBD37041F100015EEA430E08BF20EA22
:10040000D37070BDC4F1200500FA05F24EEA020E69
:1004100020FA04F301FA05F243EA020321FA04F098
:1004200001F0004121FA04F220EA020000EBD3704F
:100430005EEA430E08BF20EAD37070BD94F0000F4F
:100440000FD101F00046400041EB010111F4801F83
:1004500008BF013CF7D041EA060195F0000F18BF34
:10046000704703F00046520043EB030313F4801F70
:1004700008BF013DF7D043EA0603704794EA0C0F2A
:100480000CEA135518BF95EA0C0F0CD050EA410640
:1004900018BF52EA4306D1D181EA030101F00041BD
:1004A0004FF0000070BD50EA410606BF10461946E5
:1004B00052EA430619D094EA0C0F02D150EA0136F1
:1004C00013D195EA0C0F05D152EA03361CBF104632
:1004D00019460AD181EA030101F0004141F0FE41D1
:1004E00041F470014FF0000070BD41F0FE4141F455
:1004F000780170BD81F0004102E000BF83F000434D
:1005000030B54FEA41044FEA430594EA050F08BFAE
:1005100090EA020F1FBF54EA000C55EA020C7FEA72
:10052000645C7FEA655C00F0E2804FEA5454D4EBEF
:100530005555B8BF6D420CDD2C4480EA020281EAB9
:10054000030382EA000083EA010180EA020281EAF1
:100550000303362D88BF30BD11F0004F4FEA013143
:100560004FF4801C4CEA113102D0404261EB410152
:1005700013F0004F4FEA03334CEA133302D05242D8
:1005800063EB430394EA050F00F0A780A4F1010494
:10059000D5F1200E0DDB02FA0EFC22FA05F28018CE
:1005A00041F1000103FA0EF2801843FA05F35941B4
:1005B0000EE0A5F120050EF1200E012A03FA0EFC33
:1005C00028BF4CF0020C43FA05F3C01851EBE3715D
:1005D00001F0004507D54FF0000EDCF1000C7EEB7A
:1005E00000006EEB0101B1F5801F1BD3B1F5001FB8
:1005F0000CD349085FEA30004FEA3C0C04F10104D7
:100600004FEA445212F5800F80F09A80BCF1004FFF
:1006100008BF5FEA500C50F1000041EB045141EA81
:10062000050130BD5FEA4C0C404141EB0101013C4A
:1006300028BFB1F5801FE9D291F0000F04BF014639
:100640000020B1FA81F308BF2033A3F10B03B3F10B
:1006500020020CDA0C3208DD02F1140CC2F10C029B
:1006600001FA0CF021FA02F10CE002F11402D8BFF9
:10067000C2F1200C01FA02F120FA0CFCDCBF41EAC5
:100680000C019040E41AA2BF01EB0451294330BD94
:100690006FEA04041F3C1CDA0C340EDC04F1140471
:1006A000C4F1200220FA04F001FA02F340EA030048
:1006B00021FA04F345EA030130BDC4F10C04C4F18E
:1006C000200220FA02F001FA04F340EA030029466E
:1006D00030BD21FA04F0294630BD94F0000F83F4B8
:1006E000801306BF81F480110134013D4EE77FEA9B
:1006F000645C18BF7FEA655C29D094EA050F08BFE7
:1007000090EA020F05D054EA000C04BF19461046C7
:1007100030BD91EA030F1EBF0021002030BD5FEA0B
:10072000545C05D14000494128BF41F0004130BD33
:1007300014F580043CBF01F5801130BD01F0004587
:1007400045F0FE4141F470014FF0000030BD7FEAFA
:10075000645C1ABF194610467FEA655C1CBF0B46F5
:10076000024650EA013406BF52EA033591EA030F0C
:1007700041F4002130BD00BF90F0000F04BF002104
:10078000704730B54FF4806404F132044FF0000537
:100790004FF0000150E700BF90F0000F04BF0021B0
:1007A000704730B54FF4806404F1320410F0004516
:1007B00048BF40424FF000013EE700BF42004FEA11
:1007C000E2014FEA31014FEA02701FBF12F07F438E
:1007D00093F07F4F81F06051704732F07F4208BF45
:1007E000704793F07F4F04BF41F40021704730B54C
:1007F0004FF4607401F0004521F000411CE700BF98
:1008000050EA010208BF704730B54FF000050AE01A
:1008100050EA010208BF704730B511F0004502D51B
:10082000404261EB41014FF4806404F132045FEA1D
:10083000915C3FF4D8AE4FF003025FEADC0C18BFC6
:1008400003325FEADC0C18BF033202EBDC02C2F1B8
:10085000200300FA03FC20FA02F001FA03FE40EA4A
:100860000E0021FA02F11444BDE600BF4FEA410236
:1008700012F5001215D211D56FF47873B3EB6252F2
:1008800012D94FEAC12343F0004343EA505311F019
:10089000004F23FA02F018BF404270474FF00000AB
:1008A000704750EA013005D111F0004008BF6FF0E9
:1008B000004070474FF00000704700BF4FEA410210
:1008C000B2F1E04324BFB3F5001CDCF1FE5C0DD9AE
:1008D00001F0004C4FEAC0024CEA5070B2F1004FF8
:1008E00040EB830008BF20F00100704711F0804FFB
:1008F00021D113F13872BCBF01F00040704741F4C0
:1009000080114FEA5252C2F11802C2F1200C10FAC3
:100910000CF320FA02F018BF40F001004FEAC123A7
:100920004FEAD32303FA0CFC40EA0C0023FA02F34B
:100930004FEA4303CCE77FEA625307D150EA013321
:100940001EBF4FF0FE4040F44000704701F00040F1
:1009500040F0FE4040F40000704700BF7BB972B920
:100960000029BEBF00204FF0004106E008BF00286C
:100970001CBF6FF000414FF0FF3000F0D3B9ADF174
:10098000080C6DE904CE002909DB002B1ADB00F00E
:100990004DF8DDF804E0DDE9022304B07047404281
:1009A00061EB4101002B1BDB00F040F8DDF804E0B7
:1009B000DDE9022304B0404261EB4101524263EBA6
:1009C00043037047524263EB430300F02FF8DDF816
:1009D00004E0DDE9022304B0404261EB41017047CD
:1009E000524263EB430300F021F8DDF804E0DDE957
:1009F000022304B0524263EB4303704753B94AB930
:100A0000002908BF00281CBF4FF0FF314FF0FF3016
:100A100000F088B9ADF1080C6DE904CE00F006F8DD
:100A2000DDF804E0DDE9022304B070472DE9F0476A
:100A3000089D0F4604468C46002B48D18A42164634
:100A400061D9B2FA82F34BB1C3F1200201FA03FC7F
:100A500020FA02F29E4042EA0C0C9C404FEA164EED
:100A6000B7B2BCFBFEF1220C0EFB11CC42EA0C42E9
:100A700001FB07F0904209D9B21801F1FF3C80F068
:100A8000EE80904240F2EB8002393244121AA4B256
:100A9000B2FBFEF00EFB102244EA024400FB07F713
:100AA000A74209D9341900F1FF3280F0DA80A74259
:100AB00040F2D7803444023840EA0140E41B002170
:100AC0001DB1DC400023C5E90043BDE8F0878B423F
:100AD00006D90DB1C5E9000100210846BDE8F0873F
:100AE000B3FA83F1002948D1BB4202D3824200F21B
:100AF0000781841A67EB030201209446002DE4D09D
:100B0000C5E9004CE1E7002A00F09280B2FA82F3D6
:100B1000002B40F0A8808A1A4FEA164E1FFA86FC76
:100B20000121200CB2FBFEF70EFB172240EA024225
:100B30000CFB07F0904207D9B21807F1FF3802D238
:100B4000904200F2E2804746121AA4B2B2FBFEF0D5
:100B50000EFB102244EA02440CFB00FCA44507D91A
:100B6000341900F1FF3202D2A44500F2CB801046C6
:100B7000A4EB0C0440EA0740A2E7C1F120068B4039
:100B800022FA06FC4CEA030C07FA01F420FA06F3F9
:100B9000F7404FEA1C49234300FA01F81FFA8CFE84
:100BA000B7FBF9F01C0C09FB107744EA074400FB83
:100BB0000EF7A74202FA01F20AD91CEB040400F175
:100BC000FF3A80F09B80A74240F29880023864444C
:100BD000E41B9FB2B4FBF9F309FB134447EA044456
:100BE00003FB0EFEA64509D91CEB040403F1FF37F5
:100BF00080F08280A6457FD9023B644443EA0040EE
:100C0000A4EB0E04A0FB02E7BC427346B94663D3D3
:100C100060D05DB1B8EB030264EB090404FA06F698
:100C200022FA01F31E43CC40C5E9006400214CE7E1
:100C30006208480842EAC1710B0C43EA00438AB2D9
:100C400042EA0342B3FBF6F1E407B4463746B64640
:100C50001F23B0FBF6F0D21B41EA004161E7614679
:100C600014E7104628E7C3F1200120FA01F29E4064
:100C700027FA01F19F403A434FEA164E1FFA86FCCD
:100C8000B1FBFEF70EFB1710110C41EA004107FB08
:100C90000CF8884504FA03F43AD9711807F1FF30CB
:100CA00001D288451FD8A1EB0801B1FBFEF808FB73
:100CB0000CF70EFB181192B242EA0142BA422FD24F
:100CC000B21808F1FF31C6D2BA42C4D2A8F102016B
:100CD0003244C0E7F0459CD2BEEB020367EB0C0741
:100CE0000138B94695E7A6EB08084144B81EB1FBA8
:100CF000FEF808FB0CF7DCE73B467FE7504667E76A
:100D00000846FBE63444023832E7023F32441BE730
:100D1000A1EB08013846B1FBFEF808FB0CF7C8E769
:100D2000414698E7704700BF80B58AB000AF786051
:100D30000023FB6108F080FA5A4B1B68002B01D19D
:100D400000F086F9584B1A687B681340002B40F07E
:100D500090807B68002B1ED008227B6813447B6048
:100D60007B6803F00703002B15D07B6823F0070393
:100D700008337B607B6803F00703002B0BD04FF038
:100D8000500383F31188BFF36F8FBFF34F8F7B61E5
:100D900000BF00BFFDE77B68002B6AD0434B1B6898
:100DA0007A689A4265D8424B3B62414B1B687B6232
:100DB00004E07B6A3B627B6A1B687B627B6A5B68E0
:100DC0007A689A4203D97B6A1B68002BF1D1354BB4
:100DD0001B687A6A9A424CD03B6A1B68082213440B
:100DE000FB617B6A1A683B6A1A607B6A5A687B6897
:100DF000D21A08235B009A4220D97A6A7B6813448E
:100E0000BB61BB6903F00703002B0BD04FF050030D
:100E100083F31188BFF36F8FBFF34F8F3B6100BF28
:100E200000BFFDE77B6A5A687B68D21ABB695A60CB
:100E30007B6A7A685A60B86900F06CF91B4B1A68D3
:100E40007B6A5B68D31A194A1360184B1A68194BEE
:100E50001B689A4203D2154B1B68164A13607B6AC3
:100E60005A68114B1B681A437B6A5A607B6A0022DE
:100E70001A6008F0EFF9FB6903F00703002B0BD0B1
:100E80004FF0500383F31188BFF36F8FBFF34F8F81
:100E9000FB6000BF00BFFDE7FB6918462837BD4671
:100EA00080BD00BF9C7C0020A87C0020A07C00208E
:100EB000947C0020A47C002080B586B000AF7860D0
:100EC0007B687B617B68002B4AD008235B427A6990
:100ED00013447B617B693B613B695A68224B1B6809
:100EE0001340002B0BD14FF0500383F31188BFF355
:100EF0006F8FBFF34F8FFB6000BF00BFFDE73B6903
:100F00001B68002B0BD04FF0500383F31188BFF305
:100F10006F8FBFF34F8FBB6000BF00BFFDE73B6922
:100F20005A68114B1B681340002B19D03B691B6892
:100F3000002B15D13B695A680B4B1B68DB431A40E9
:100F40003B695A6008F078F93B695A68074B1B689F
:100F50001344064A1360386900F0DCF808F07AF9A7
:100F600000BF1837BD4680BDA87C0020A07C0020B3
:100F700080B487B000AF78607B687B6108235B42F8
:100F80007A6913447B617B693B613B695A68064B14
:100F90001B68DB431340FB60FB6818461C37BD46EB
:100FA0005DF8047B704700BFA87C002080B584B04A
:100FB00000AF7860396008F03FF93868FFF7B4FE99
:100FC000B860BB68002B17D07B68002B14D0786802
:100FD000FFF7CEFF034608229B1AFB603A68FB68C6
:100FE0009A4201D23B68FB60FA687968B86818F0E9
:100FF000C6FD7868FFF760FF08F02CF9BB6818465B
:101000001037BD4680BD80B586B000AF78603960CE
:1010100008F012F93B687A6802FB03F37B61786998
:10102000FFF782FEF860FB683B6104E03B695A1CF5
:101030003A6100221A707B695A1E7A61002BF5D141
:1010400008F008F9FB6818461837BD4680BD000057
:1010500080B485B000AF4FF4C043BB60274BFB604A
:10106000FB6803F00703002B0CD0FB680733FB6021
:10107000FB6823F00703FB60BA68FB68D31A1F4ABA
:101080001344BB60FB687B601D4A7B6813601C4B8C
:1010900000225A607B68BA681344FB600822FB6830
:1010A0009B1AFB60FB6823F00703FB60FB68154A93
:1010B0001360144B1B6800225A60124B1B680022FD
:1010C0001A607B683B603B68FA68D21A3B685A60DA
:1010D0000C4B1A683B681A603B685B680A4A1360ED
:1010E0003B685B68094A1360094B4FF000421A6085
:1010F00000BF1437BD465DF8047B7047941C002088
:10110000947C00209C7C0020A47C0020A07C0020FB
:10111000A87C002080B485B000AF7860284BFB60CD
:1011200002E0FB681B68FB60FB681B687A689A42F8
:10113000F7D8FB68BB60FB685B68BA6813447A68E1
:101140009A4208D1FB685A687B685B681A44FB685E
:101150005A60FB687B607B68BB607B685B68BA68D1
:101160001A44FB681B689A4218D1FB681A68154B31
:101170001B689A420DD07B685A68FB681B685B68E5
:101180001A447B685A60FB681B681A687B681A609F
:1011900008E00C4B1A687B681A6003E0FB681A6869
:1011A0007B681A60FA687B689A4202D0FB687A68AA
:1011B0001A6000BF1437BD465DF8047B704700BF5E
:1011C000947C00209C7C002080B582B000AF00237E
:1011D0007B601F4B1B6B1E4A43F4001313631C4BB5
:1011E0001B6B03F400137B607B6800233B60184B90
:1011F0001B6B174A43F480031363154B1B6B03F4FB
:1012000080033B603B6800220521102002F01EF89D
:10121000102002F037F800220521112002F016F804
:10122000112002F02FF8002205213A2002F00EF8DA
:101230003A2002F027F800220521462002F006F8A5
:10124000462002F01FF800BF0837BD4680BD00BF32
:101250000038024080B584B000AF78607B68D3F876
:101260008C32FB604FF400620449F86805F048FCDA
:10127000012318461037BD4680BD00BFAC7C00205E
:1012800080B584B000AF78607B68D3F88C32FB60A7
:10129000F86805F05AFC012318461037BD4680BD9A
:1012A00080B586B000AFF860B9607A603B60FB68DB
:1012B000D3F88C327B617B6993F84130DBB2202B11
:1012C0001CD17B689BB21A46B968786905F09CFB13
:1012D0000346FB7402E0012006F04CFFFB7C002B70
:1012E00005D17B6993F84130DBB2202BF3D1FB7C35
:1012F000002B01D17B6802E0002300E000231846A8
:101300001837BD4680BD000080B588B000AFF860DA
:10131000B9607A603B60FB68D3F88C327B61002354
:10132000FB6172B600BF7B69DB6B1B685B68C3F552
:1013300000631C4A136062B600BFFB690133FB61A6
:10134000012006F017FF184B1A68164B1B689A42CB
:1013500003D1FA693B689A42E3DB0023BB6111E0E9
:10136000114B1A68B968BB690B4410498A5C1A7042
:101370000D4B1B680133C3F30A030B4A1360BB69AF
:101380000133BB61084B1A68064B1B689A4203D0B5
:10139000BA697B689A42E3D3BB6918462037BD46D9
:1013A00080BD00BFB0840020AC840020AC7C002055
:1013B00080B500AF084A0021084806F049FE034600
:1013C000074A1360074A0021074806F041FE03461A
:1013D000064A136000BF80BD84AA0108F11300080B
:1013E000B884002060AA0108A5190008B484002070
:1013F00080B582B000AF78600021154804F0F4FA9F
:101400000421134804F0F0FA0821114804F0ECFA22
:101410000C210F4804F0E8FA3C210E4804F052FC7D
:101420003C210D4804F04EFC094B1B6800225A6316
:10143000074B1B6800229A63054B1B680022DA6386
:10144000034B1B6800221A64012006F093FEFBE7A1
:1014500068850020B08500208886002080B582B095
:1014600000AF7860391D4FF0FF330122034805F0CB
:101470003FFA7B6818460837BD4680BD18870020B4
:1014800080B582B000AF786039604FF0FF331A2228
:101490000349044805F02CFA72B600BF00BFFDE70F
:1014A000A8AA01081887002080B485B000AF786032
:1014B00039607B681B685B6ABB603B681B68BA6805
:1014C000D31AFB60FB6840F6B832934205DDFB6837
:1014D000A3F5BB53113BFB6008E0FB68104A934245
:1014E00004DAFB6803F5BB531133FB603B68BA6851
:1014F0001A60FB6807EE903AB8EEE77ADFED096A0A
:10150000C7EE267A9FED087AC7EE876AF0EE667A14
:10151000B0EE670A1437BD465DF8047B704700BF24
:1015200048F4FFFF00807745CDCC4C3D80B586B0B8
:1015300004AF0023FB716423029301230193FB1D7D
:10154000009301236B22D021034802F08BFD00BFE2
:101550000837BD4680BD00BFBC84002080B590B078
:1015600004AF7860642302930E23019307F10C0308
:10157000009301233B22D021584802F06DFE034620
:10158000002B40F0A7803B7B1BB21B021AB27B7B77
:101590001BB21343FB85BB7B1BB21B021AB2FB7B46
:1015A0001BB21343BB853B7C1BB21B021AB27B7C74
:1015B0001BB213437B853B7D1BB21B021AB27B7DA2
:1015C0001BB213433B85BB7D1BB21B021AB2FB7DD2
:1015D0001BB21343FB843B7E1BB21B021AB27B7E01
:1015E0001BB21343BB843E4B3B623E4BFB61B7F9DE
:1015F0002E3007EE903AB8EEE77AD7ED087A67EE2C
:10160000277A17EE900AFFF7D9F802460B46796859
:10161000C1E93823B7F92C3007EE903AB8EEE77AF3
:10162000D7ED087A67EE277A17EE900AFFF7C6F82B
:1016300002460B467968C1E93A23B7F92A3007EE2A
:10164000903AB8EEE77AD7ED087A67EE277A17EE88
:10165000900AFFF7B3F802460B467968C1E93C23CC
:10166000B7F9283007EE903AB8EEE77AD7ED077A67
:1016700067EE277A17EE900AFFF7A0F802460B46AE
:101680007968C1E92023B7F9263007EE903AB8EE21
:10169000E77AD7ED077A67EE277A17EE900AFFF719
:1016A0008DF802460B467968C1E92223B7F9243048
:1016B00007EE903AB8EEE77AD7ED077A67EE277A29
:1016C00017EE900AFFF77AF802460B467968C1E9EF
:1016D000242300E000BF3037BD4680BDBC8400201D
:1016E0000AE81C3AFDB30B3990B52DED028B8BB097
:1016F00000AF78607B68FB61FB69D3E900014FF0C4
:101700000002704BFEF7CCFD02460B461046194610
:10171000FFF7ACF80446FB69D3E90A014FF0000279
:10172000684BFEF7BDFD02460B4610461946FFF713
:101730009DF803461A462146634817F005FFFB69EA
:10174000D3E9002310461946FFF7B8F808EE100A4F
:10175000FB69D3E90A2310461946FFF7AFF807EEF5
:10176000100ADFED5A7A67EE277A78EE677AC7EDCE
:10177000067AFB69D3E9002310461946FFF79EF865
:1017800008EE100AFB69D3E90A2310461946FFF751
:1017900095F807EE100ADFED4D7A67EE277A78EEBE
:1017A000277AC7ED057A97ED067ADFED496AC7EE2D
:1017B000267AC7ED097A97ED057ADFED456AC7EE1F
:1017C000267AC7ED087AD7ED097AB0EE007AF4EE02
:1017D000C77AF1EE10FA02DD4FF080437B62D7ED5D
:1017E000097AB8EE007AF4EEC77AF1EE10FA02D573
:1017F0004FF040437B62D7ED087AB0EE007AF4EE0A
:10180000C77AF1EE10FA02DD4FF080433B62D7ED6C
:10181000087AB8EE007AF4EEC77AF1EE10FA02D543
:101820004FF040433B6297ED097AF0EE006AC7EE55
:10183000267A9FED287A67EE877AFDEEE77A17EE33
:10184000903A3B6197ED087AF0EE006AC7EE267A8F
:101850009FED207A67EE877AFDEEE77A17EE903AF1
:10186000FB603B69002B08DB1B4B1B683A695A6322
:10187000194B1B6800229A6308E0174B1B68002273
:101880005A633B695A42144B1B689A63FB68002BEE
:1018900008DB114B1B68FA68DA630F4B1B680022E8
:1018A0001A6408E00C4B1B680022DA63FB685A429A
:1018B000094B1B681A6400BF2C37BD46BDEC028B78
:1018C00090BD00BF00408F402CA80108CDCCCC3D7E
:1018D0004752543E0000FA426885002080B500AFB0
:1018E000264B5B6F1946264817F02EFE234B5B6F85
:1018F000002B02DA234817F027FE204B5B6F03F022
:101900008043002B02D0204817F01EFE1B4B5B6F5C
:1019100003F00053002B02D01C4817F015FE174BA4
:101920005B6F03F08053002B02D0194817F00CFEB8
:10193000124B5B6F03F00063002B02D0154817F0C9
:1019400003FE0E4B5B6F03F08063002B02D0124846
:1019500017F0FAFD094B5B6F03F00073002B02D008
:101960000E4817F0F1FD0E4817F056FE034B5B6F63
:10197000024A43F08073536700BF80BD00380240C5
:101980005CA8010878A8010884A8010898A80108A3
:10199000B0A80108BCA80108CCA80108D8A8010873
:1019A000E4A8010880B5ADF5287D02AF07F52673E0
:1019B000A3F525731860FFF791FFA04817F02CFEE0
:1019C0009F4B01939F4B00939F4BA04AA04901203E
:1019D0000BF04AFF07F5207318460BF073FE9D4B82
:1019E000C7F880329C4BC7F884329C4BC7F88832CA
:1019F0009B4BC7F88C3207F5207318460BF07EFE20
:101A0000034683F00103DBB2002B02D0954817F0A8
:101A100003FE07F50E7318460BF062FE924817F0AE
:101A2000FBFD07F50E7307F51370002200210BF084
:101A300053FD8E4817F0F0FD07F5137307F50C7092
:101A40008B4A8C490BF092FD8B4817F0E5FD0CF0AA
:101A500071FC024607F50C7107F50B70874B0BF014
:101A6000C1FD0CF0DBFD024607F50C7107F50A70AD
:101A7000834B0BF0B7FD0CF0D1FD024607F50C715E
:101A800007F509707F4B0BF0ADFD09F095F80246A4
:101A900007F50C7107F1D4007B4B0BF0D7FD07F570
:101AA0000E7307F5137107F1100001220BF0C4FA51
:101AB00007F1A00207F1D40107F110000023009301
:101AC000724B0BF025FB07F52673A3F5DC73704A08
:101AD0009A606F48FEF7DCFB024607F52673A3F514
:101AE000DC73DA6007F52673A3F5DC7309221A614B
:101AF00007F52673A3F5DC714FF000024FF00003E9
:101B0000C1E9062307F52673A3F5DC714FF0000247
:101B10004FF00003C1E9082307F52673A3F5DC7134
:101B20004FF000024FF00003C1E90A2307F52673C6
:101B3000A3F5DC714FF00002564BC1E90C2307F509
:101B40002673A3F5DC714FF00002534BC1E90E235D
:101B5000FFF7ECFC514B1B685B6A1A4607F52673CE
:101B6000A3F523731A604E4B1B685B6A1A4607F590
:101B70002673A3F524731A604A4817F04DFD00231D
:101B8000C7F8943207F1E0031846FFF7E7FC07F1C6
:101B90000C0319464148FFF787FCF0EE407A07F541
:101BA0002673A3F5DE73C3ED007A07F10803194627
:101BB0003B48FFF779FCF0EE407A07F52673A3F572
:101BC000E073C3ED007A07F1E00107F50B73002223
:101BD00018460AF087FE07F1DC0107F50A730022B8
:101BE00018460AF07FFE07F1D80107F509730022B5
:101BF00018460AF077FE07F110012B4A4FF0000358
:101C000008460BF003FBD7F894320133C7F894323F
:101C1000D7F89412254BA3FB01231A0913469B0006
:101C200013449B00CA1A002A04D1D7F89412204802
:101C300017F08AFC322006F09DFAA3E7E8A8010815
:101C400009130008A11200088112000855120008AB
:101C5000D0860020711F0008B51F0008ED1F000886
:101C60005920000800A9010820A9010860A901085D
:101C700080A9010884A9010890A90108ACA901085C
:101C8000BCA90108D0A90108E4A90108E9160008C7
:101C9000000000200000F03F0000F0BFB0850020F1
:101CA00088860020ECA9010880969800CDCCCCCC89
:101CB0000CAA010880B485B000AF0023FB601E4B66
:101CC0001B6B1D4A43F0800313631B4B1B6B03F01C
:101CD0008003FB60FB680023BB60174B1B6B164A3D
:101CE00043F001031363144B1B6B03F00103BB6050
:101CF000BB6800237B60104B1B6B0F4A43F0100343
:101D000013630D4B1B6B03F010037B607B68002398
:101D10003B60094B1B6B084A43F002031363064BFD
:101D20001B6B03F002033B603B6800BF1437BD46EA
:101D30005DF8047B704700BF0038024080B500AFFB
:101D4000124B134A1A60114B124A5A600F4B002271
:101D50009A600E4B0022DA600C4B4FF480421A61FD
:101D60000A4B00225A61094B00229A61074B00225C
:101D7000DA61064B00221A62044802F02FF803468B
:101D8000002B01D000F0EEF800BF80BDBC84002025
:101D900000580040801A060080B58AB000AF786015
:101DA00007F1140300221A605A609A60DA601A611F
:101DB0007B681B68194A93422CD100233B61184B66
:101DC0001B6B174A43F002031363154B1B6B03F0A5
:101DD00002033B613B694FF440637B611223BB61AB
:101DE0000023FB6103233B6204237B6207F114039E
:101DF00019460C4801F056FE0023FB60084B1B6C93
:101E0000074A43F480031364054B1B6C03F48003FF
:101E1000FB60FB6800BF2837BD4680BD005800400E
:101E2000003802400004024080B500AF01F014F910
:101E300000F01CF8FFF73EFFFFF7C6F900F0DEFBED
:101E400000F084FC00F0D6FC00F028FD00F07AFDE4
:101E500000F054FF00F028FFFFF770FF06F0AEF827
:101E6000FFF7A6FA06F0CEF800BFFDE780B594B004
:101E700000AF07F1200330220021184617F045FD7E
:101E800007F10C0300221A605A609A60DA601A6146
:101E90000023BB60284B1B6C274A43F0805313641C
:101EA000254B1B6C03F08053BB60BB6800237B6039
:101EB000224B1B68214A43F4804313601F4B1B686D
:101EC00003F480437B607B6801233B624FF48033E3
:101ED0007B620223BB634FF48003FB6308233B64F4
:101EE000A8237B640223BB640423FB6407F1200363
:101EF000184602F097FF0346002B01D000F032F89D
:101F00000F23FB6002233B6100237B614FF4A0534E
:101F1000BB614FF48053FB6107F10C0305211846A8
:101F200003F0F8F90346002B01D000F01BF800BFC6
:101F30005037BD4680BD00BF0038024000700040F1
:101F400080B582B000AF78607B681B68044A93421A
:101F500001D101F0A3F800BF0837BD4680BD00BF26
:101F60000010004080B400AF72B600BF00BFFDE7B4
:101F700080B582B000AF786039600C4B1B681A46A0
:101F80007B6813441A46094B1A60094B1B681A46B2
:101F90007B6813441A46064B1A607868FEF7C4FE45
:101FA000034618460837BD4680BD00BF1085002097
:101FB0001485002080B582B000AF786039607B68FE
:101FC000002B0CD07868FEF7D3FF0346064A126850
:101FD000D31A1A46044B1A607868FEF76DFF00BFEB
:101FE0000837BD4680BD00BF1485002080B584B091
:101FF00000AFF860B9607A60154B1B681A46BB6881
:1020000013441A46124B1A60124B1B681A46BB68DF
:1020100013441A460F4B1A60FB68002B04D1B868B2
:10202000FEF782FE03460EE0F868FEF7A1FF0346C6
:10203000084A1268D31A1A46064B1A60B968F8683B
:10204000FEF7B4FF034618461037BD4680BD00BFFB
:10205000108500201485002080B584B000AFF860A2
:10206000B9607A60FB68BA6802FB03F30C4A126835
:1020700013441A460A4B1A60FB68BA6802FB03F362
:10208000084A126813441A46064B1A60B968F86881
:10209000FEF7B9FF034618461037BD4680BD00BFA6
:1020A00010850020148500202DE9B04386B000AFD4
:1020B000C7E902017A6000237B61D7E9020120A30E
:1020C000D3E90023FEF74AFC02460B467968C1E9D2
:1020D0000023D7E902011AA3D3E90023FEF73EFC4F
:1020E0007B689A607B689B68002B20DA7B689B6822
:1020F000114A82FB03121217DB17D31A01337B61DB
:102100007B68D3E900237969C8170C460546B2EB12
:10211000040863EB05097B68C3E900897B689A685A
:102120007B69064901FB03F31A447B689A6000BF90
:102130001837BD46BDE8B083A12FB84400CA9A3B0A
:1021400000CA9A3B000000002DE9B04F8EB000AFEE
:102150007862396207F128020023136053604FF060
:1021600000024FF00003C7E90C2307F128031846CB
:1021700007F018FBBB6ADA17BB61FA614FF0000287
:102180004FF00003B9690B000022C7E90C23FB6A7A
:1021900000221C461546D7E90C231119B9606B4182
:1021A000FB60D7E90234C7E90C34D7E90C010246D9
:1021B0000B464FF000044FF000055D0145EAD26583
:1021C000540122462B46B2EB000863EB01094FF0A5
:1021D00000024FF000034FEA492343EAD8534FEA85
:1021E00048229046994618EB000A49EB010B4FF044
:1021F00000024FF000034FEA8B1343EA9A634FEA61
:102200008A12B2EB0A043C6063EB0B037B60D7E9F4
:10221000004523461B183B612B4641EB03037B61C2
:102220003A6AD7E90401FFF73FFF00231846383721
:10223000BD46BDE8B08F000080B582B000AF00237E
:102240007B60124B5B6C114A43F4804353640F4B29
:102250005B6C03F480437B607B6800233B600B4B2B
:102260001B6C0A4A43F080531364084B1B6C03F049
:1022700080533B603B6800220F216FF0010000F0AB
:10228000E5FF00BF0837BD4680BD00BF00380240F3
:1022900080B58EB000AF78600023FB620023BB6284
:1022A0000023FB60334B1B6C324A43F01003136472
:1022B000304B1B6C03F01003FB60FB6807F110024E
:1022C00007F114031146184603F042FA3B6AFB6219
:1022D000FB6A002B03D103F013FA786304E003F0E8
:1022E0000FFA03465B007B637B6B234AA2FB03234D
:1022F0009B0C013BBB62214B214A1A601F4B40F2F1
:10230000E732DA601D4ABB6A53601C4B00221A6137
:102310001A4B00229A60194B00229A61174803F069
:1023200049FA034687F8333097F83330002B1BD136
:10233000124803F099FA034687F8333097F83330A0
:10234000002B11D1362000F09DFF7B680F2B08D8A1
:1023500000227968362000F079FF0A4A7B68136012
:1023600002E0012387F8333097F8333018463837C6
:10237000BD4680BD0038024083DE1B431885002027
:10238000001000401400002080B400AF00BFFDE743
:1023900080B400AF00BFFDE780B400AF00BFFDE731
:1023A00080B400AF00BFFDE780B400AF00BFFDE721
:1023B00080B400AF00BFBD465DF8047B70470000ED
:1023C00080B500AF024801F003F900BF80BD00BF37
:1023D0002088002080B500AF024801F0F9F800BF66
:1023E00080BD00BF8088002080B500AF024804F0A7
:1023F0002BFC00BF80BD00BFD086002080B500AFA1
:10240000024804F021FC00BF80BD00BF18870020F7
:1024100080B500AF024803F0E3FC00BF80BD00BF01
:102420001885002080B500AF024801F0D1F800BF48
:1024300080BD00BF6087002080B500AF024801F07A
:10244000C7F800BF80BD00BFC087002080B400AFC8
:1024500001231846BD465DF8047B704780B582B005
:1024600000AF7860396017F055FB034616221A60FA
:102470004FF0FF3318460837BD4680BD80B582B0A7
:1024800000AF78604FF0FF317868FFF7E7FF00BFDB
:10249000FDE780B586B000AFF860B9607A600023D0
:1024A0007B610AE0AFF300800146BB685A1CBA604A
:1024B000CAB21A707B6901337B617A697B689A4280
:1024C000F0DB7B6818461837BD4680BD80B586B006
:1024D00000AFF860B9607A6000237B6109E0BB68F7
:1024E0005A1CBA601B781846FEF7B8FF7B690133A7
:1024F0007B617A697B689A42F1DB7B681846183702
:10250000BD4680BD80B483B000AF78604FF0FF332C
:1025100018460C37BD465DF8047B704780B483B025
:1025200000AF786039603B684FF400525A60002376
:1025300018460C37BD465DF8047B704780B483B005
:1025400000AF7860012318460C37BD465DF8047B68
:10255000704780B485B000AFF860B9607A6000233E
:1025600018461437BD465DF8047B704780B586B0C9
:1025700000AF7860144A154BD31A7B617B693B61CD
:10258000134B1B68002B02D1114B124A1A60104BDF
:102590001A687B6813443A699A4207D217F0BAFA6C
:1025A00003460C221A604FF0FF3309E0084B1B680A
:1025B000FB60074B1A687B681344054A1360FB688D
:1025C00018461837BD4680BD0000022000040000F8
:1025D00064850020A845012080B400AF064BD3F8E5
:1025E0008830054A43F47003C2F8883000BFBD4606
:1025F0005DF8047B704700BF00ED00E080B592B04D
:1026000000AF07F1400300221A605A6007F124036B
:1026100000221A605A609A60DA601A615A619A61FF
:102620003B1D20220021184617F06FF9454B464A02
:102630001A60444B40F247325A60424B00229A6083
:10264000404B40F24732DA603E4B00221A613D4B6C
:1026500000225A613B4B80229A613A4803F074F998
:102660000346002B01D0FFF77DFC00233B640023D1
:102670007B6407F140031946324804F007F803462B
:10268000002B01D0FFF76EFC60237B620023BB624E
:102690000023FB6200233B6300237B630023BB63B7
:1026A0000023FB6307F1240300221946254803F0A9
:1026B00087FC0346002B01D0FFF754FC07F12403ED
:1026C000042219461F4803F07BFC0346002B01D06F
:1026D000FFF748FC07F1240308221946194803F0C4
:1026E0006FFC0346002B01D0FFF73CFC07F12403ED
:1026F0000C221946134803F063FC0346002B01D05B
:10270000FFF730FC00237B600023BB600023FB60ED
:1027100000233B6100237B614FF40053BB61002326
:102720003B623B1D1946074804F02CF80346002B7A
:1027300001D0FFF717FC034800F07CFA00BF4837D0
:10274000BD4680BD688500200000014080B58CB08A
:1027500000AF07F10C0324220021184617F0D5F82A
:102760003B1D00221A605A60214B4FF080421A60D4
:102770001F4B00225A601E4B00229A601C4B41F2F4
:102780007072DA601A4B00221A61194B80229A612A
:102790000123FB6000233B6101237B610023BB61BC
:1027A0000023FB6100233B6201237B620023BB62A9
:1027B0000023FB6207F10C0319460D4803F0DCF916
:1027C0000346002B01D0FFF7CDFB00237B600023E5
:1027D000BB603B1D1946064803F058FF0346002B1B
:1027E00001D0FFF7BFFB00BF3037BD4680BD00BF43
:1027F000B085002080B58CB000AF07F10C03242217
:102800000021184617F081F83B1D00221A605A601B
:10281000204B214A1A601F4B00225A601D4B002298
:102820009A601C4B41F27072DA601A4B00221A61F6
:10283000184B80229A610123FB6000233B61012336
:102840007B610023BB610023FB6100233B6201230A
:102850007B620023BB620023FB6207F10C03194675
:102860000C4803F089F90346002B01D0FFF77AFBEF
:1028700000237B600023BB603B1D1946054803F025
:1028800005FF0346002B01D0FFF76CFB00BF30377C
:10289000BD4680BDF88500200004004080B58CB0A6
:1028A00000AF07F10C0324220021184617F02DF881
:1028B0003B1D00221A605A60204B214A1A601F4BB0
:1028C00000225A601D4B00229A601C4B41F270722C
:1028D000DA601A4B00221A61184B80229A61012398
:1028E000FB6000233B6101237B610023BB6100236C
:1028F000FB6100233B6201237B620023BB62002358
:10290000FB6207F10C0319460C4803F035F9034646
:10291000002B01D0FFF726FB00237B600023BB6068
:102920003B1D1946054803F0B1FE0346002B01D0BC
:10293000FFF718FB00BF3037BD4680BD4086002042
:102940000008004080B58CB000AF07F10C032422D2
:102950000021184616F0D9FF3B1D00221A605A606C
:10296000204B214A1A601F4B00225A601D4B002247
:102970009A601C4B41F27072DA601A4B00221A61A5
:10298000184B80229A610123FB6000233B610123E5
:102990007B610023BB610023FB6100233B620123B9
:1029A0007B620023BB620023FB6207F10C03194624
:1029B0000C4803F0E1F80346002B01D0FFF7D2FAF0
:1029C00000237B600023BB603B1D1946054803F0D4
:1029D0005DFE0346002B01D0FFF7C4FA00BF30377D
:1029E000BD4680BD88860020000C004080B485B0C4
:1029F00000AF78607B681B680B4A93420DD10023BF
:102A0000FB600A4B5B6C094A43F001035364074BBC
:102A10005B6C03F00103FB60FB6800BF1437BD462D
:102A20005DF8047B704700BF0000014000380240A1
:102A300080B590B000AF786007F12C0300221A60D7
:102A40005A609A60DA601A617B681B68B3F1804F44
:102A50004BD10023BB62714B1B6C704A43F00103E6
:102A600013646E4B1B6C03F00103BB62BB6A002353
:102A70007B626A4B1B6B694A43F001031363674B2C
:102A80001B6B03F001037B627B6A00233B62634B99
:102A90001B6B624A43F002031363604B1B6B03F032
:102AA00002033B623B6A4FF40043FB6202233B6339
:102AB00000237B630023BB630123FB6307F12C032B
:102AC0001946574800F0EEFF0823FB6202233B63E0
:102AD00000237B630023BB630123FB6307F12C030B
:102AE0001946504800F0DEFF94E07B681B684E4AB0
:102AF00093422CD10023FB61484B1B6C474A43F0A7
:102B000002031364454B1B6C03F00203FB61FB697A
:102B10000023BB61414B1B6B404A43F0020313632C
:102B20003E4B1B6B03F00203BB61BB693023FB62AE
:102B300002233B6300237B630023BB630223FB630D
:102B400007F12C031946374800F0ACFF62E07B68C0
:102B50001B68364A93422CD100237B612F4B1B6CA0
:102B60002E4A43F0040313642C4B1B6C03F0040344
:102B70007B617B6900233B61284B1B6B274A43F039
:102B800002031363254B1B6B03F002033B613B699C
:102B9000C023FB6202233B6300237B630023BB63F0
:102BA0000223FB6307F12C0319461E4800F07AFF4D
:102BB00030E07B681B681E4A93422BD10023FB60E8
:102BC000164B1B6C154A43F008031364134B1B6C24
:102BD00003F00803FB60FB680023BB600F4B1B6B1B
:102BE0000E4A43F0010313630C4B1B6B03F001030C
:102BF000BB60BB680323FB6202233B6300237B6350
:102C00000023BB630223FB6307F12C03194604482E
:102C100000F048FF00BF4037BD4680BD003802408D
:102C20000000024000040240000400400008004090
:102C3000000C004080B588B000AF786007F10C034D
:102C400000221A605A609A60DA601A617B681B6819
:102C5000124A93421ED10023BB60114B1B6B104ADA
:102C600043F0100313630E4B1B6B03F01003BB60A8
:102C7000BB684FF4D443FB6002233B6100237B61BC
:102C80000023BB610123FB6107F10C0319460548D2
:102C900000F008FF00BF2037BD4680BD00000140A6
:102CA000003802400010024080B500AF114B124ABC
:102CB0001A60104B4FF4E1325A600E4B00229A60BA
:102CC0000C4B0022DA600B4B00221A61094B0C22DC
:102CD0005A61084B00229A61064B0022DA610548CE
:102CE00003F0B6FD0346002B01D0FFF73BF900BF10
:102CF00080BD00BFD08600200010014080B500AF2D
:102D0000114B124A1A60104B4FF4E1325A600E4BCD
:102D100000229A600C4B0022DA600B4B00221A61F1
:102D2000094B0C225A61084B00229A61064B002283
:102D3000DA61054803F08CFD0346002B01D0FFF754
:102D400011F900BF80BD00BF18870020004400407B
:102D500080B58CB000AF786007F11C0300221A60C8
:102D60005A609A60DA601A617B681B68994A9342DC
:102D700040F095800023BB61974B5B6C964A43F013
:102D800010035364944B5B6C03F01003BB61BB698D
:102D900000237B61904B1B6B8F4A43F0010313634D
:102DA0008D4B1B6B03F001037B617B694FF4C063A8
:102DB000FB6102233B6200237B620323BB62072388
:102DC000FB6207F11C031946844800F06BFE844B3C
:102DD000844A1A60824B4FF000625A60804B002296
:102DE0009A607F4B0022DA607D4B4FF480621A615B
:102DF0007B4B00225A617A4B00229A61784B4FF448
:102E00008072DA61764B4FF440321A62744B0022C2
:102E10005A62734800F044FA0346002B01D0FFF7D2
:102E2000A1F87B686E4ADA636D4A7B6893636E4BE8
:102E30006E4A1A606C4B4FF000625A606A4B402237
:102E40009A60694B0022DA60674B4FF480621A6126
:102E5000654B00225A61644B00229A61624B00224A
:102E6000DA61614B4FF440321A625F4B00225A62C2
:102E70005D4800F015FA0346002B01D0FFF772F809
:102E80007B68594A9A63584A7B68936300220521FC
:102E9000252000F0DBF9252000F0F4F996E07B68AE
:102EA0001B68534A934240F0918000233B614A4B98
:102EB0001B6C494A43F400331364474B1B6C03F407
:102EC00000333B613B690023FB60434B1B6B424A71
:102ED00043F001031363404B1B6B03F00103FB60E2
:102EE000FB680C23FB6102233B6200237B6203230C
:102EF000BB620723FB6207F11C031946374800F049
:102F0000D1FD3C4B3C4A1A603A4B4FF000625A608C
:102F1000384B00229A60374B0022DA60354B4FF471
:102F200080621A61334B00225A61324B00229A614F
:102F3000304B4FF48072DA612E4B00221A622D4B17
:102F400000225A622B4800F0ABF90346002B01D057
:102F5000FFF708F87B68274ADA63264A7B689363A1
:102F6000264B274A1A60254B4FF000625A60234BCC
:102F700040229A60214B0022DA60204B4FF480629D
:102F80001A611E4B00225A611C4B00229A611B4B96
:102F90000022DA61194B00221A62184B00225A6291
:102FA000164800F07DF90346002B01D0FEF7DAFF4A
:102FB0007B68124A9A63114A7B6893630022052159
:102FC000262000F043F9262000F05CF900BF3037DE
:102FD000BD4680BD001001400038024000000240A4
:102FE0006087002040640240C0870020B86402402F
:102FF0000044004020880020886002408088002033
:10300000A0600240DFF834D0FFF7E6FA0C480D4923
:103010000D4A002302E0D458C4500433C4188C4233
:10302000F9D30A4A0A4C002301E013600432A24299
:10303000FBD316F075FDFEF7F7FE70470000022087
:1030400000000020741C0020F8BF0108781C00203C
:10305000A8450120FEE7000080B500AF0E4B1B68BD
:103060000D4A43F4007313600B4B1B680A4A43F488
:1030700080631360084B1B68074A43F48073136036
:10308000032000F0D8F80F20FFF702F9FFF7D4F87B
:103090000023184680BD00BF003C024080B400AF52
:1030A000064B1B781A46064B1B681344044A1360F0
:1030B00000BFBD465DF8047B704700BF18000020CC
:1030C000E088002080B400AF034B1B681846BD4663
:1030D0005DF8047B704700BFE088002080B485B0B5
:1030E00000AF78607B6803F00703FB600C4BDB6884
:1030F000BB60BA684FF6FF031340BB60FB681A025F
:10310000BB68134343F0BF6343F40033BB60044A1E
:10311000BB68D36000BF1437BD465DF8047B7047C1
:1031200000ED00E080B400AF044BDB681B0A03F045
:1031300007031846BD465DF8047B704700ED00E0CC
:1031400080B483B000AF0346FB7197F90730002BC2
:103150000BDBFB7903F01F02074997F907305B0986
:10316000012000FA02F241F8232000BF0C37BD46CF
:103170005DF8047B704700BF00E100E080B483B0DD
:1031800000AF03463960FB7197F90730002B0ADB6B
:103190003B68DAB20C4997F907301201D2B20B44FE
:1031A00083F800230AE03B68DAB20849FB7903F0B0
:1031B0000F03043B1201D2B20B441A7600BF0C3746
:1031C000BD465DF8047B704700E100E000ED00E0E3
:1031D00080B489B000AFF860B9607A60FB6803F032
:1031E0000703FB61FB69C3F10703042B28BF04231A
:1031F000BB61FB690433062B02D9FB69033B00E08A
:1032000000237B614FF0FF32BB6902FA03F3DA431C
:10321000BB681A407B699A404FF0FF317B6901FA25
:1032200003F3D9437B680B40134318462437BD464C
:103230005DF8047B704780B582B000AF7860786835
:10324000FFF74CFF00BF0837BD4680BD80B586B094
:1032500000AF0346B9607A60FB7300237B61FFF720
:1032600061FF78617A68B9687869FFF7B1FF024653
:1032700097F90F3011461846FFF780FF00BF183747
:10328000BD4680BD80B582B000AF0346FB7197F9A3
:1032900007301846FFF754FF00BF0837BD4680BD12
:1032A00080B586B000AF786000237B61FFF70AFF2E
:1032B00038617B68002B01D1012399E07B680222F1
:1032C00083F835207B68002283F834207B681B68F4
:1032D0001A687B681B6822F001021A600FE0FFF792
:1032E000F1FE02463B69D31A052B08D97B682022E0
:1032F0005A657B68032283F83520032378E07B68D6
:103300001B681B6803F00103002BE8D17B681B6876
:103310001B687B617A69384B13407B617B685A6814
:103320007B689B681A437B68DB681A437B681B6970
:103330001A437B685B691A437B689B691A437B6805
:10334000DB691A437B681B6A13437A6913437B6109
:103350007B685B6A042B07D17B68DA6A7B681B6B2E
:1033600013437A6913437B617B681B687A691A602F
:103370007B681B685B697B617B6923F007037B616A
:103380007B685B6A7A6913437B617B685B6A042BA9
:1033900017D17B689B6A7A6913437B617B68DB6A20
:1033A000002B0ED0786800F001FB0346002B08D0FC
:1033B0007B6840225A657B68012283F8352001230F
:1033C00016E07B681B687A695A61786800F0B8FA81
:1033D0000346FB607B68DB6D3F229A40FB689A6086
:1033E0007B6800225A657B68012283F83520002320
:1033F00018461837BD4680BD3F8010F080B586B0B6
:1034000000AFF860B9607A603B600023FB75FB6831
:103410009B6D3B61FB6893F83430012B01D1022393
:1034200040E0FB68012283F83420FB6893F83530D4
:10343000DBB2012B2FD1FB68022283F83520FB6819
:1034400000225A653B687A68B968F86800F04AFA61
:10345000FB68DB6D3F229A403B699A60FB681B6802
:103460001A68FB681B6842F016021A60FB681B6C46
:10347000002B07D0FB681B681A68FB681B6842F0CA
:1034800008021A60FB681B681A68FB681B6842F038
:1034900001021A6005E0FB68002283F83420022351
:1034A000FB75FB7D18461837BD4680BD80B584B0DE
:1034B00000AF78607B689B6DFB60FFF703FEB86030
:1034C0007B6893F83530DBB2022B08D07B68802212
:1034D0005A657B68002283F83420012352E07B6820
:1034E0001B681A687B681B6822F016021A607B68EA
:1034F0001B685A697B681B6822F080025A617B68EE
:103500001B6C002B03D17B689B6C002B07D07B6866
:103510001B681A687B681B6822F008021A607B68C7
:103520001B681A687B681B6822F001021A6013E0AE
:10353000FFF7C8FD0246BB68D31A052B0CD97B6880
:1035400020225A657B68032283F835207B6800229D
:1035500083F83420032315E07B681B681B6803F0A5
:103560000103002BE4D17B68DB6D3F229A40FB68AE
:103570009A607B68012283F835207B68002283F8FB
:103580003420002318461037BD4680BD80B483B078
:1035900000AF78607B6893F83530DBB2022B04D043
:1035A0007B6880225A6501230CE07B68052283F842
:1035B00035207B681B681A687B681B6822F0010253
:1035C0001A60002318460C37BD465DF8047B70472F
:1035D00080B586B000AF78600023BB608E4B1B685F
:1035E0008E4AA2FB03239B0A7B617B689B6D3B6138
:1035F0003B691B68FB607B68DB6D08229A40FB68B7
:103600001340002B1AD07B681B681B6803F004036F
:10361000002B13D07B681B681A687B681B6822F03C
:1036200004021A607B68DB6D08229A403B699A604D
:103630007B685B6D43F001027B685A657B68DB6DDC
:1036400001229A40FB681340002B12D07B681B6854
:103650005B6903F08003002B0BD07B68DB6D0122DC
:103660009A403B699A607B685B6D43F002027B681D
:103670005A657B68DB6D04229A40FB681340002B7F
:1036800012D07B681B681B6803F00203002B0BD071
:103690007B68DB6D04229A403B699A607B685B6DB6
:1036A00043F004027B685A657B68DB6D10229A4008
:1036B000FB681340002B43D07B681B681B6803F03A
:1036C0000803002B3CD07B68DB6D10229A403B69DD
:1036D0009A607B681B681B6803F48023002B18D05A
:1036E0007B681B681B6803F40023002B08D17B68F0
:1036F0001B6C002B24D07B681B6C786898471FE0FC
:103700007B689B6C002B1BD07B689B6C7868984710
:1037100016E07B681B681B6803F48073002B07D1DD
:103720007B681B681A687B681B6822F008021A60B5
:103730007B681B6C002B03D07B681B6C78689847F8
:103740007B68DB6D20229A40FB681340002B00F061
:103750008F807B681B681B6803F01003002B00F050
:1037600087807B68DB6D20229A403B699A607B688A
:1037700093F83530DBB2052B36D17B681B681A68AD
:103780007B681B6822F016021A607B681B685A6906
:103790007B681B6822F080025A617B681B6C002BDF
:1037A00003D17B689B6C002B07D07B681B681A6871
:1037B0007B681B6822F008021A607B68DB6D3F2281
:1037C0009A403B699A607B68012283F835207B68C8
:1037D000002283F834207B681B6D002B7ED07B6831
:1037E0001B6D7868984779E07B681B681B6803F459
:1037F0008023002B1DD07B681B681B6803F400230B
:10380000002B0DD17B685B6C002B31D07B685B6C2F
:10381000786898472CE000BF10000020B5814E1B4F
:103820007B68DB6B002B23D07B68DB6B7868984769
:103830001EE07B681B681B6803F48073002B0FD1AC
:103840007B681B681A687B681B6822F010021A608C
:103850007B68012283F835207B68002283F83420BE
:103860007B68DB6B002B03D07B68DB6B7868984749
:103870007B685B6D002B32D07B685B6D03F00103CE
:10388000002B22D07B68052283F835207B681B68DB
:103890001A687B681B6822F001021A60BB6801335A
:1038A000BB607A699A4207D37B681B681B6803F088
:1038B0000103002BF2D100E000BF7B68012283F8F6
:1038C00035207B68002283F834207B68DB6C002B7A
:1038D00005D07B68DB6C7868984700E000BF18373C
:1038E000BD4680BD80B485B000AFF860B9607A6035
:1038F0003B60FB681B681A68FB681B6822F4802227
:103900001A60FB681B683A685A60FB689B68402B2A
:1039100008D1FB681B687A689A60FB681B68BA6804
:10392000DA6007E0FB681B68BA689A60FB681B688E
:103930007A68DA6000BF1437BD465DF8047B7047D3
:1039400080B485B000AF78607B681B68DBB2103B49
:10395000144AA2FB03231B09FB60134AFB681344B0
:103960001B781A467B68DA65FB68032B09D97B68EC
:103970001B6823F47F7323F003031A1D7B689A6589
:1039800007E07B681B6823F47F7323F003037A68E6
:1039900093657B689B6D18461437BD465DF8047BC4
:1039A000704700BFABAAAAAADCAA010880B485B000
:1039B00000AF78600023FB737B689B6ABB607B6809
:1039C0009B69002B1FD1BB68032B56D801A252F86C
:1039D00023F000BFE5390008F7390008E539000891
:1039E0007B3A00087B68DB6A03F08073002B46D0CB
:1039F0000123FB7343E07B68DB6AB3F1C07F40D1F6
:103A00000123FB733DE07B689B69B3F5005F21D127
:103A1000BB68032B37D801A252F823F02D3A0008D7
:103A2000333A00082D3A0008453A00080123FB7399
:103A300030E07B68DB6A03F08073002B25D0012324
:103A4000FB7322E07B68DB6AB3F1C07F1FD10123E7
:103A5000FB731CE0BB68022B03D9BB68032B03D0AC
:103A600018E00123FB7315E07B68DB6A03F08073C9
:103A7000002B0ED00123FB730BE000BF0AE000BF58
:103A800008E000BF06E000BF04E000BF02E000BFA6
:103A900000E000BFFB7B18461437BD465DF8047B91
:103AA000704700BF80B489B000AF786039600023F0
:103AB0007B6100233B610023BB610023FB616BE161
:103AC0000122FB6902FA03F37B613B681B687A6998
:103AD00013403B613A697B699A4240F05A813B68E6
:103AE0005B6803F00303012B05D03B685B6803F0C0
:103AF0000303022B30D17B689B68BB61FB695B00D1
:103B0000032202FA03F3DB43BA691340BB613B684B
:103B1000DA68FB695B0002FA03F3BA691343BB611D
:103B20007B68BA699A607B685B68BB610122FB694C
:103B300002FA03F3DB43BA691340BB613B685B687D
:103B40001B0903F00102FB6902FA03F3BA6913438C
:103B5000BB617B68BA695A603B685B6803F003032A
:103B6000032B17D07B68DB68BB61FB695B0003221A
:103B700002FA03F3DB43BA691340BB613B689A68FE
:103B8000FB695B0002FA03F3BA691343BB617B680C
:103B9000BA69DA603B685B6803F00303022B23D148
:103BA000FB69DA087B68083253F82230BB61FB6995
:103BB00003F007039B000F2202FA03F3DB43BA6909
:103BC0001340BB613B681A69FB6903F007039B0064
:103BD00002FA03F3BA691343BB61FB69DA087B6835
:103BE0000832B96943F822107B681B68BB61FB6926
:103BF0005B00032202FA03F3DB43BA691340BB61A3
:103C00003B685B6803F00302FB695B0002FA03F3A5
:103C1000BA691343BB617B68BA691A603B685B6829
:103C200003F44033002B00F0B4800023FB60604BB2
:103C30005B6C5F4A43F4804353645D4B5B6C03F4FD
:103C40008043FB60FB685B4AFB699B08023352F8C8
:103C50002330BB61FB6903F003039B000F2202FAD0
:103C600003F3DB43BA691340BB617B68524A93425A
:103C70002BD07B68514A934225D07B68504A9342AF
:103C80001FD07B684F4A934219D07B684E4A9342BB
:103C900013D07B684D4A93420DD07B684C4A9342C7
:103CA00007D07B684B4A934201D107230EE00823DB
:103CB0000CE006230AE0052308E0042306E00323C2
:103CC00004E0022302E0012300E00023FA6902F08D
:103CD000030292009340BA691343BB613549FB6903
:103CE0009B080233BA6941F823203B4B9B68BB61B8
:103CF0003B69DB43BA691340BB613B685B6803F413
:103D00008013002B03D0BA693B691343BB61324A6D
:103D1000BB699360304BDB68BB613B69DB43BA69CD
:103D20001340BB613B685B6803F40013002B03D0B6
:103D3000BA693B691343BB61274ABB69D360264B11
:103D40005B68BB613B69DB43BA691340BB613B689D
:103D50005B6803F40033002B03D0BA693B6913435B
:103D6000BB611D4ABB6953601B4B1B68BB613B6950
:103D7000DB43BA691340BB613B685B6803F4803383
:103D8000002B03D0BA693B691343BB61124ABB697C
:103D90001360FB690133FB61FB690F2B7FF690AE6B
:103DA00000BF00BF2437BD465DF8047B704700BFED
:103DB0000038024000380140000002400004024088
:103DC00000080240000C02400010024000140240B3
:103DD00000180240001C0240003C014080B584B045
:103DE00000AF78607B68002B01D101232BE17B6859
:103DF00093F83D30DBB2002B06D17B68002283F8BC
:103E00003C207868FDF7C8FF7B68242283F83D20BA
:103E10007B681B681A687B681B6822F001021A60C5
:103E20007B681B681A687B681B6842F400421A6052
:103E30007B681B681A687B681B6822F400421A6062
:103E400001F05EFCF8607B685B68814A934207D8AA
:103E5000FB68804A934294BF01230023DBB206E053
:103E6000FB687D4A934294BF01230023DBB2002B01
:103E700001D00123E7E0FB68784AA2FB03239B0CF7
:103E8000BB607B681B685B6823F03F017B681B6835
:103E9000BA680A435A607B681B681B6A23F03F01BB
:103EA0007B685B686A4A934202D8BB68013309E0C9
:103EB000BB684FF4967202FB03F3694AA2FB03232B
:103EC0009B0901337A6812680B4313627B681B6895
:103ED000DB6923F44F4222F0FF027B685B685C4998
:103EE0008B4219D8FB68591E7B685B685B00B1FB8D
:103EF000F3F3591C40F6FC730B40002B0AD0FB680F
:103F0000591E7B685B685B00B1FBF3F30133C3F3BD
:103F10000B0351E004234FE07B689B68002B11D119
:103F2000FB68581E7B6859680B465B000B44B0FB6E
:103F3000F3F30133C3F30B03002B0CBF0123002366
:103F4000DBB212E0FB68581E7B6859680B469B0089
:103F50000B4499000B44B0FBF3F30133C3F30B03A1
:103F6000002B0CBF01230023DBB2002B01D0012367
:103F700022E07B689B68002B0ED1FB68581E7B6893
:103F800059680B465B000B44B0FBF3F30133C3F3FA
:103F90000B0343F400430FE0FB68581E7B6859682D
:103FA0000B469B000B4499000B44B0FBF3F3013329
:103FB000C3F30B0343F44043796809681343CB61AF
:103FC0007B681B681B6823F0C0017B68DA697B682B
:103FD0001B6A1A437B681B680A431A607B681B686C
:103FE0009B6823F4034323F0FF037A6811697A681E
:103FF000D26811437A6812680B4393607B681B6830
:10400000DB6823F0FF017B685A697B689B691A4370
:104010007B681B680A43DA607B681B681A687B68E8
:104020001B6842F001021A607B6800221A647B68F8
:10403000202283F83D207B6800221A637B680022DF
:1040400083F83E20002318461037BD4680BD00BFD0
:10405000A08601007F841E00FF083D0083DE1B4315
:10406000D34D621080B588B002AFF86008461146A3
:104070001A4603467B810B463B811346FB80FFF7C4
:1040800021F87861FB6893F83D30DBB2202B40F0DB
:10409000D9807B690093192301226D49F86800F0EB
:1040A0008BFC0346002B01D00223CCE0FB6893F885
:1040B0003C30012B01D10223C5E0FB68012283F8CB
:1040C0003C20FB681B681B6803F00103012B07D031
:1040D000FB681B681A68FB681B6842F001021A60E3
:1040E000FB681B681A68FB681B6822F400621A6090
:1040F000FB68212283F83D20FB68402283F83E20A4
:10410000FB6800221A64FB683A6A5A62FB68BA8C40
:104110005A85FB685B8D9AB2FB681A85FB684D4A2D
:10412000DA62F8883A8979897B690193BB6A0093DE
:104130000346F86800F0C2FA0346002B52D0012370
:1041400081E07A69B96AF86800F050FD0346002BF7
:104150000DD0FB681B6C042B07D1FB681B681A6829
:10416000FB681B6842F400721A6001236BE0FB6875
:104170005B6A1A78FB681B681A61FB685B6A5A1CE9
:10418000FB685A62FB681B8D013B9AB2FB681A857B
:10419000FB685B8D9BB2013B9AB2FB685A85FB685A
:1041A0001B685B6903F00403042B1BD1FB681B8DA8
:1041B000002B17D0FB685B6A1A78FB681B681A61D2
:1041C000FB685B6A5A1CFB685A62FB681B8D013BEB
:1041D0009AB2FB681A85FB685B8D9BB2013B9AB271
:1041E000FB685A85FB681B8D002BAAD17A69B96AD6
:1041F000F86800F043FD0346002B0DD0FB681B6CF4
:10420000042B07D1FB681B681A68FB681B6842F423
:1042100000721A60012316E0FB681B681A68FB68CD
:104220001B6842F400721A60FB68202283F83D206C
:10423000FB68002283F83E20FB68002283F83C20C4
:10424000002300E0022318461837BD4680BD00BF9A
:10425000020010000000FFFF80B58CB002AFF860D4
:10426000084611461A4603467B810B463B8113469E
:10427000FB80FEF727FF7862FB6893F83D30DBB2E6
:10428000202B40F014827B6A0093192301227B4982
:10429000F86800F091FB0346002B01D0022307E2EF
:1042A000FB6893F83C30012B01D1022300E2FB684C
:1042B000012283F83C20FB681B681B6803F00103A4
:1042C000012B07D0FB681B681A68FB681B6842F06B
:1042D00001021A60FB681B681A68FB681B6822F4FD
:1042E00000621A60FB68222283F83D20FB684022AE
:1042F00083F83E20FB6800221A64FB683A6B5A621E
:10430000FB68BA8E5A85FB685B8D9AB2FB681A858A
:10431000FB685B4ADA62F8883A8979897B6A01939B
:10432000BB6B00930346F86800F05EFA0346002B6F
:1043300001D00123BCE1FB681B8D002B13D10023AE
:104340003B62FB681B685B693B62FB681B689B699F
:104350003B623B6AFB681B681A68FB681B6842F497
:1043600000721A6090E1FB681B8D012B1BD1FB686A
:104370001B681A68FB681B6822F480621A600023BD
:10438000FB61FB681B685B69FB61FB681B689B69E1
:10439000FB61FB69FB681B681A68FB681B6842F4D9
:1043A00000721A6070E1FB681B8D022B1BD1FB6849
:1043B0001B681A68FB681B6822F480621A60FB683D
:1043C0001B681A68FB681B6842F400621A600023CD
:1043D000BB61FB681B685B69BB61FB681B689B6911
:1043E000BB61BB6950E100237B61FB681B685B69B3
:1043F0007B61FB681B689B697B617B6944E1FB68AF
:104400001B8D032B00F2F180FB681B8D012B23D148
:104410007A6AB96BF86800F079FC0346002B01D08A
:10442000012345E1FB681B681A69FB685B6AD2B22D
:104430001A70FB685B6A5A1CFB685A62FB681B8D2A
:10444000013B9AB2FB681A85FB685B8D9BB2013B0E
:104450009AB2FB685A8517E1FB681B8D022B4ED17F
:104460007B6A0093BB6B00220649F86800F0A4FA4F
:104470000346002B08D001231AE100BF0200100000
:104480000000FFFF04000100FB681B681A68FB685E
:104490001B6842F400721A60FB681B681A69FB68AB
:1044A0005B6AD2B21A70FB685B6A5A1CFB685A627C
:1044B000FB681B8D013B9AB2FB681A85FB685B8D1C
:1044C0009BB2013B9AB2FB685A85FB681B681A696C
:1044D000FB685B6AD2B21A70FB685B6A5A1CFB68A5
:1044E0005A62FB681B8D013B9AB2FB681A85FB6818
:1044F0005B8D9BB2013B9AB2FB685A85C4E07B6A34
:104500000093BB6B00226C49F86800F055FA034633
:10451000002B01D00123CBE0FB681B681A68FB6805
:104520001B6822F480621A60FB681B681A69FB68CA
:104530005B6AD2B21A70FB685B6A5A1CFB685A62EB
:10454000FB681B8D013B9AB2FB681A85FB685B8D8B
:104550009BB2013B9AB2FB685A857B6A0093BB6BA6
:1045600000225549F86800F027FA0346002B01D0D5
:1045700001239DE0FB681B681A68FB681B6842F416
:1045800000721A60FB681B681A69FB685B6AD2B22A
:104590001A70FB685B6A5A1CFB685A62FB681B8DC9
:1045A000013B9AB2FB681A85FB685B8D9BB2013BAD
:1045B0009AB2FB685A85FB681B681A69FB685B6ADC
:1045C000D2B21A70FB685B6A5A1CFB685A62FB68BD
:1045D0001B8D013B9AB2FB681A85FB685B8D9BB211
:1045E000013B9AB2FB685A854EE07A6AB96BF8686B
:1045F00000F08CFB0346002B01D0012358E0FB6840
:104600001B681A69FB685B6AD2B21A70FB685B6A46
:104610005A1CFB685A62FB681B8D013B9AB2FB680F
:104620001A85FB685B8D9BB2013B9AB2FB685A8589
:10463000FB681B685B6903F00403042B24D1FB684F
:104640001B8D032B07D1FB681B681A68FB681B686E
:1046500022F480621A60FB681B681A69FB685B6A57
:10466000D2B21A70FB685B6A5A1CFB685A62FB681C
:104670001B8D013B9AB2FB681A85FB685B8D9BB270
:10468000013B9AB2FB685A85FB681B8D002B7FF4B7
:10469000B6AEFB68202283F83D20FB68002283F839
:1046A0003E20FB68002283F83C20002300E0022328
:1046B00018462837BD4680BD0400010080B588B08B
:1046C00002AFF860084611461A4603467B810B4646
:1046D0003B811346FB80FB681B681A68FB681B68FC
:1046E00042F480721A607B6A00933B6A00224FF0AA
:1046F0000111F86800F060F90346002B0DD0FB684B
:104700001B681B6803F48073B3F5807F03D1FB68DB
:104710004FF400721A6403235FE07B89DBB21A4610
:10472000FB681B6802F0FE021A617B6A3A6A2D4937
:10473000F86800F0BBF90346002B01D001234CE0E0
:1047400000237B61FB681B685B697B61FB681B68FE
:104750009B697B617B697A6A396AF86800F046FA7E
:104760000346002B0DD0FB681B6C042B07D1FB68A4
:104770001B681A68FB681B6842F400721A60012308
:104780002BE0FB88012B05D13B89DAB2FB681B6863
:104790001A6121E03B891B0A9BB2DAB2FB681B68F5
:1047A0001A617A6A396AF86800F020FA0346002B29
:1047B0000DD0FB681B6C042B07D1FB681B681A68C3
:1047C000FB681B6842F400721A60012305E03B8914
:1047D000DAB2FB681B681A61002318461837BD4619
:1047E00080BD00BF0200010080B588B002AFF86054
:1047F000084611461A4603467B810B463B81134609
:10480000FB80FB681B681A68FB681B6842F48062C7
:104810001A60FB681B681A68FB681B6842F48072A8
:104820001A607B6A00933B6A00224FF00111F8681E
:1048300000F0C2F80346002B0DD0FB681B681B6814
:1048400003F48073B3F5807F03D1FB684FF40072EB
:104850001A640323AAE07B89DBB21A46FB681B6853
:1048600002F0FE021A617B6A3A6A5249F86800F067
:104870001DF90346002B01D0012397E000237B6143
:10488000FB681B685B697B61FB681B689B697B61DC
:104890007B697A6A396AF86800F0A8F90346002B48
:1048A0000DD0FB681B6C042B07D1FB681B681A68D2
:1048B000FB681B6842F400721A60012376E0FB88F3
:1048C000012B05D13B89DAB2FB681B681A6121E034
:1048D0003B891B0A9BB2DAB2FB681B681A617A6AD1
:1048E000396AF86800F082F90346002B0DD0FB68A6
:1048F0001B6C042B07D1FB681B681A68FB681B68DC
:1049000042F400721A60012350E03B89DAB2FB687E
:104910001B681A617A6A396AF86800F067F9034619
:10492000002B0DD0FB681B6C042B07D1FB681B68A8
:104930001A68FB681B6842F400721A60012335E0B4
:10494000FB681B681A68FB681B6842F480721A6077
:104950007B6A00933B6A00224FF00111F86800F077
:104960002BF80346002B0DD0FB681B681B6803F473
:104970008073B3F5807F03D1FB684FF400721A6433
:10498000032313E07B89DBB243F00103DAB2FB6857
:104990001B681A617B6A3A6A0649F86800F086F873
:1049A0000346002B01D0012300E0002318461837EE
:1049B000BD4680BD0200010080B584B000AFF86044
:1049C000B9603B601346FB7148E03B68B3F1FF3FC1
:1049D00044D0FEF777FB0246BB69D31A3A689A4285
:1049E00002D33B68002B39D1BB681B0CDBB2012B17
:1049F0000DD1FB681B685B69DA43BB6813409BB24F
:104A0000002B0CBF01230023DBB21A460CE0FB682D
:104A10001B689B69DA43BB6813409BB2002B0CBF39
:104A200001230023DBB21A46FB799A4216D1FB68B8
:104A300000221A63FB68202283F83D20FB680022D5
:104A400083F83E20FB681B6C43F02002FB681A646D
:104A5000FB68002283F83C20012323E0BB681B0C89
:104A6000DBB2012B0DD1FB681B685B69DA43BB68C5
:104A700013409BB2002B0CBF01230023DBB21A466C
:104A80000CE0FB681B689B69DA43BB6813409BB270
:104A9000002B0CBF01230023DBB21A46FB799A429C
:104AA00093D0002318461037BD4680BD80B584B032
:104AB00000AFF860B9607A603B6071E0FB681B682A
:104AC0005B6903F48063B3F5806F23D1FB681B68D7
:104AD0001A68FB681B6842F400721A60FB681B6866
:104AE0006FF480625A61FB6800221A63FB6820221F
:104AF00083F83D20FB68002283F83E20FB681B6C96
:104B000043F00402FB681A64FB68002283F83C202F
:104B1000012367E07B68B3F1FF3F41D0FEF7D2FA93
:104B200002463B68D31A7A689A4202D37B68002B0C
:104B300036D1BB681B0CDBB2012B0CD1FB681B68A8
:104B40005B69DA43BB6813409BB2002B14BF01239F
:104B50000023DBB20BE0FB681B689B69DA43BB6890
:104B600013409BB2002B14BF01230023DBB2002BA8
:104B700016D0FB6800221A63FB68202283F83D20D0
:104B8000FB68002283F83E20FB681B6C43F0200288
:104B9000FB681A64FB68002283F83C20012321E0B3
:104BA000BB681B0CDBB2012B0CD1FB681B685B697B
:104BB000DA43BB6813409BB2002B14BF01230023D0
:104BC000DBB20BE0FB681B689B69DA43BB681340F0
:104BD0009BB2002B14BF01230023DBB2002B7FF418
:104BE0006DAF002318461037BD4680BD80B584B038
:104BF00000AFF860B9607A6034E0F86800F0E3F87C
:104C00000346002B01D0012334E0BB68B3F1FF3F22
:104C100028D0FEF757FA02467B68D31ABA689A4240
:104C200002D3BB68002B1DD1FB681B685B6903F0D6
:104C30008003802B16D0FB6800221A63FB682022B9
:104C400083F83D20FB68002283F83E20FB681B6C44
:104C500043F02002FB681A64FB68002283F83C20C2
:104C6000012307E0FB681B685B6903F08003802B6E
:104C7000C3D1002318461037BD4680BD80B584B02F
:104C800000AFF860B9607A6034E0F86800F09BF833
:104C90000346002B01D0012334E0BB68B3F1FF3F92
:104CA00028D0FEF70FFA02467B68D31ABA689A42F8
:104CB00002D3BB68002B1DD1FB681B685B6903F046
:104CC0000403042B16D0FB6800221A63FB68202221
:104CD00083F83D20FB68002283F83E20FB681B6CB4
:104CE00043F02002FB681A64FB68002283F83C2032
:104CF000012307E0FB681B685B6903F00403042BD6
:104D0000C3D1002318461037BD4680BD80B584B09E
:104D100000AFF860B9607A6049E0FB681B685B69C6
:104D200003F01003102B19D1FB681B686FF0100201
:104D30005A61FB6800221A63FB68202283F83D2039
:104D4000FB68002283F83E20FB681A6CFB681A643B
:104D5000FB68002283F83C20012330E0FEF7B2F923
:104D600002467B68D31ABA689A4202D3BB68002B0A
:104D70001DD1FB681B685B6903F04003402B16D014
:104D8000FB6800221A63FB68202283F83D20FB6841
:104D9000002283F83E20FB681B6C43F02002FB6876
:104DA0001A64FB68002283F83C20012307E0FB68BB
:104DB0001B685B6903F04003402BAED1002318460B
:104DC0001037BD4680BD80B483B000AF78607B688B
:104DD0001B685B6903F48063B3F5806F1BD17B684C
:104DE0001B686FF480625A617B6800221A637B68DB
:104DF000202283F83D207B68002283F83E207B68D8
:104E00001B6C43F004027B681A647B68002283F801
:104E10003C20012300E0002318460C37BD465DF816
:104E2000047B704780B586B000AF78607B68002B4C
:104E300001D1012367E27B681B6803F00103002BAB
:104E400075D0884B9B6803F00C03042B0CD0854B6A
:104E50009B6803F00C03082B12D1824B5B6803F4B0
:104E60008003B3F5800F0BD17E4B1B6803F4003336
:104E7000002B5BD07B685B68002B57D1012342E29B
:104E80007B685B68B3F5803F06D1764B1B68754A3B
:104E900043F4803313601DE07B685B68B3F5A02F9B
:104EA0000CD1704B1B686F4A43F4802313606D4B29
:104EB0001B686C4A43F4803313600BE0694B1B683A
:104EC000684A23F480331360664B1B68654A23F4F9
:104ED000802313607B685B68002B13D0FEF7F2F829
:104EE000386108E0FEF7EEF802463B69D31A642BFE
:104EF00001D9032307E25B4B1B6803F40033002B4B
:104F0000F0D014E0FEF7DEF8386108E0FEF7DAF8DA
:104F100002463B69D31A642B01D90323F3E1514BB9
:104F20001B6803F40033002BF0D100E000BF7B6866
:104F30001B6803F00203002B63D04A4B9B6803F00D
:104F40000C03002B0BD0474B9B6803F00C03082B82
:104F50001CD1444B5B6803F48003002B16D1414BFA
:104F60001B6803F00203002B05D07B68DB68012B74
:104F700001D00123C7E13B4B1B6823F0F8027B689B
:104F80001B69DB00374913430B603AE07B68DB6841
:104F9000002B20D0344B01221A60FEF793F83861C1
:104FA00008E0FEF78FF802463B69D31A022B01D9BD
:104FB0000323A8E12B4B1B6803F00203002BF0D066
:104FC000284B1B6823F0F8027B681B69DB0025492E
:104FD00013430B6015E0244B00221A60FEF772F8B1
:104FE000386108E0FEF76EF802463B69D31A022BDF
:104FF00001D9032387E11B4B1B6803F00203002B3D
:10500000F0D17B681B6803F00803002B36D07B6867
:105010005B69002B16D0154B01221A60FEF752F87F
:10502000386108E0FEF74EF802463B69D31A022BBE
:1050300001D9032367E10B4B5B6F03F00203002BE5
:10504000F0D01BE0094B00221A60FEF73BF83861F4
:105050000EE0FEF737F802463B69D31A022B07D958
:10506000032350E10038024000004742800E4742CF
:10507000884B5B6F03F00203002BEAD17B681B684F
:1050800003F00403002B00F097800023FB75814B95
:105090001B6C03F08053002B0FD10023BB607D4BB2
:1050A0001B6C7C4A43F0805313647A4B1B6C03F0F7
:1050B0008053BB60BB680123FB75774B1B6803F40F
:1050C0008073002B18D1744B1B68734A43F48073B0
:1050D0001360FDF7F7FF386108E0FDF7F3FF0246C4
:1050E0003B69D31A022B01D903230CE16A4B1B68DD
:1050F00003F48073002BF0D07B689B68012B06D1F2
:10510000644B1B6F634A43F0010313671CE07B6829
:105110009B68052B0CD15F4B1B6F5E4A43F0040369
:1051200013675C4B1B6F5B4A43F0010313670BE093
:10513000584B1B6F574A23F001031367554B1B6FE6
:10514000544A23F0040313677B689B68002B15D037
:10515000FDF7B8FF38610AE0FDF7B4FF02463B698E
:10516000D31A41F28832934201D90323CBE0494B51
:105170001B6F03F00203002BEED014E0FDF7A2FF3B
:1051800038610AE0FDF79EFF02463B69D31A41F2FF
:105190008832934201D90323B5E03E4B1B6F03F0E5
:1051A0000203002BEED1FB7D012B05D1394B1B6C8B
:1051B000384A23F0805313647B689B69002B00F00E
:1051C000A180344B9B6803F00C03082B5CD07B68F8
:1051D0009B69022B41D1314B00221A60FDF772FF0F
:1051E000386108E0FDF76EFF02463B69D31A022BD7
:1051F00001D9032387E0274B1B6803F00073002BC2
:10520000F0D17B68DA697B681B6A1A437B685B6A4A
:105210009B011A437B689B6A5B08013B1B041A4392
:105220007B68DB6A1B061B4913434B601B4B012247
:105230001A60FDF747FF386108E0FDF743FF0246BB
:105240003B69D31A022B01D903235CE0114B1B6885
:1052500003F00073002BF0D054E0104B00221A60D2
:10526000FDF730FF386108E0FDF72CFF02463B698F
:10527000D31A022B01D9032345E0064B1B6803F028
:105280000073002BF0D13DE07B689B69012B07D1B7
:10529000012338E0003802400070004060004742BF
:1052A0001B4B5B68FB607B689B69012B28D0FB680C
:1052B00003F480027B68DB699A4221D1FB6803F02A
:1052C0003F027B681B6A9A421AD1FA6847F6C0739C
:1052D00013407A68526A9201934211D1FB6803F439
:1052E00040327B689B6A5B08013B1B049A4207D1F2
:1052F000FB6803F070627B68DB6A1B069A4201D090
:10530000012300E0002318461837BD4680BD00BFCA
:105310000038024080B584B000AF786039607B68A7
:10532000002B01D10123CCE0684B1B6803F007037D
:105330003A689A420CD9654B3A68D2B21A70634BFC
:105340001B6803F007033A689A4201D00123B8E0D2
:105350007B681B6803F00203002B20D07B681B686E
:1053600003F00403002B05D0594B9B68584A43F4C3
:10537000E05393607B681B6803F00803002B05D0A3
:10538000534B9B68524A43F460439360504B9B6875
:1053900023F0F0027B689B684D4913438B607B6868
:1053A0001B6803F00103002B44D07B685B68012B72
:1053B00007D1474B1B6803F40033002B19D101239D
:1053C0007FE07B685B68022B03D07B685B68032B04
:1053D00007D13F4B1B6803F00073002B09D1012359
:1053E0006FE03B4B1B6803F00203002B01D101234C
:1053F00067E0374B9B6823F003027B685B683449A6
:1054000013438B60FDF75EFEF8600AE0FDF75AFE7D
:105410000246FB68D31A41F28832934201D9032332
:105420004FE02B4B9B6803F00C027B685B689B0092
:105430009A42EBD1254B1B6803F007033A689A4266
:105440000CD2224B3A68D2B21A70204B1B6803F080
:1054500007033A689A4201D0012332E07B681B6857
:1054600003F00403002B08D0194B9B6823F4E0528F
:105470007B68DB68164913438B607B681B6803F00D
:105480000803002B09D0124B9B6823F460427B6811
:105490001B69DB000E4913438B6000F021F80246C4
:1054A0000B4B9B681B0903F00F030A49CB5C22FAE4
:1054B00003F3094A1360094B1B681846FCF7E8FE22
:1054C000002318461037BD4680BD00BF003C024097
:1054D00000380240C4AA0108100000201400002077
:1054E0002DE9B04F94B000AF00237B640023FB6430
:1054F00000233B640023BB64794B9B6803F00C03DF
:10550000082B0DD0082B00F2E180002B02D0042BD9
:1055100003D0DBE0734BBB64DBE0724BBB64D8E0D1
:105520006F4B5B6803F03F037B646D4B5B6803F478
:105530008003002B63D06A4B5B689B090022BB632E
:10554000FA63BB6BC3F308033B6300237B63D7E9B8
:105550000C4522462B464FF000004FF00001590148
:1055600041EAD261500102460B462146511A396187
:10557000294663EB01037B614FF000024FF000030B
:10558000D7E904AB59468B01514643EA9163514632
:105590008A015146B2EB0108594663EB01094FF00D
:1055A00000024FF000034FEAC90343EA58734FEA81
:1055B000C80290469946234618EB0303BB602B466E
:1055C00049EB0303FB604FF000024FF00003D7E903
:1055D000024529468B02214643EA915321468A021D
:1055E000104619467B6C0022BB62FA62D7E90A2397
:1055F000FBF704FA02460B461346FB6458E0384BAF
:105600005B689B09002218461146C0F308033B6201
:1056100000237B62D7E9088942464B464FF00000E1
:105620004FF00001590141EAD261500102460B4698
:105630004146B2EB010A494663EB010B4FF0000211
:105640004FF000034FEA8B1343EA9A634FEA8A1242
:10565000B2EB0A0463EB0B054FF000024FF00003BE
:10566000EB0043EA5473E20014461D464346E31838
:105670003B604B4645EB03037B604FF000024FF06D
:105680000003D7E9004529468B02214643EA91539E
:1056900021468A02104619467B6C0022BB61FA61E2
:1056A000D7E90623FBF7AAF902460B461346FB642B
:1056B0000B4B5B681B0C03F0030301335B003B6483
:1056C000FA6C3B6CB2FBF3F3BB6402E0054BBB64CA
:1056D00000BFBB6C18465037BD46BDE8B08F00BF59
:1056E000003802400024F40080B400AF034B1B6874
:1056F0001846BD465DF8047B704700BF10000020CF
:1057000080B500AFFFF7F0FF0246054B9B689B0A90
:1057100003F007030349CB5C22FA03F3184680BD6C
:1057200000380240D4AA010880B500AFFFF7DCFFC3
:105730000246054B9B685B0B03F007030349CB5CF8
:1057400022FA03F3184680BD00380240D4AA0108AB
:1057500080B483B000AF786039607B680F221A6034
:10576000124B9B6803F003027B685A600F4B9B68E7
:1057700003F0F0027B689A600C4B9B6803F4E052E4
:105780007B68DA60094B9B68DB0803F4E0527B68B6
:105790001A61074B1B6803F007023B681A6000BFE1
:1057A0000C37BD465DF8047B704700BF00380240EF
:1057B000003C024080B582B000AF78607B68002B6F
:1057C00001D1012341E07B6893F83D30DBB2002B2F
:1057D00006D17B68002283F83C20786800F039F815
:1057E0007B68022283F83D207B681A687B6804335B
:1057F0001946104600F0CEFC7B68012283F8462053
:105800007B68012283F83E207B68012283F83F20D9
:105810007B68012283F840207B68012283F84120C5
:105820007B68012283F842207B68012283F84320B1
:105830007B68012283F844207B68012283F845209D
:105840007B68012283F83D20002318460837BD46B7
:1058500080BD80B483B000AF786000BF0C37BD4618
:105860005DF8047B7047000080B485B000AF7860BD
:105870007B6893F83D30DBB2012B01D001234EE071
:105880007B68022283F83D207B681B68DA687B68AE
:105890001B6842F00102DA607B681B68234A93426E
:1058A00022D07B681B68B3F1804F1DD07B681B68DA
:1058B0001F4A934218D07B681B681E4A934213D03C
:1058C0007B681B681C4A93420ED07B681B681B4A8E
:1058D000934209D07B681B68194A934204D07B68C5
:1058E0001B68184A934211D17B681B689B6803F0C0
:1058F0000703FB60FB68062B10D07B681B681A68E7
:105900007B681B6842F001021A6007E07B681B6835
:105910001A687B681B6842F001021A60002318466F
:105920001437BD465DF8047B704700BF000001409E
:105930000004004000080040000C0040000401404A
:10594000004001400018004080B582B000AF786090
:105950007B68002B01D1012341E07B6893F83D3047
:10596000DBB2002B06D17B68002283F83C207868EC
:10597000FDF73CF87B68022283F83D207B681A68BB
:105980007B6804331946104600F004FC7B68012252
:1059900083F846207B68012283F83E207B68012241
:1059A00083F83F207B68012283F840207B68012236
:1059B00083F841207B68012283F842207B68012222
:1059C00083F843207B68012283F844207B6801220E
:1059D00083F845207B68012283F83D200023184688
:1059E0000837BD4680BD000080B584B000AF786048
:1059F00039603B68002B09D17B6893F83E30DBB2FD
:105A0000012B14BF01230023DBB222E03B68042BEF
:105A100009D17B6893F83F30DBB2012B14BF01231F
:105A20000023DBB215E03B68082B09D17B6893F8B3
:105A30004030DBB2012B14BF01230023DBB208E0AE
:105A40007B6893F84130DBB2012B14BF01230023A4
:105A5000DBB2002B01D001237CE03B68002B04D19A
:105A60007B68022283F83E2013E03B68042B04D1BC
:105A70007B68022283F83F200BE03B68082B04D1AF
:105A80007B68022283F8402003E07B68022283F8CF
:105A900041207B681B6801223968184600F0D0FD60
:105AA0007B681B682D4A934204D07B681B682C4A94
:105AB000934201D1012300E00023002B07D07B6833
:105AC0001B685A6C7B681B6842F400425A647B680E
:105AD0001B68224A934222D07B681B68B3F1804F37
